:020000040000FA
:04000000E9EF3AF0FA
:1074FD0050726F6A6563743500000EBD6E7C0EBBF5
:10750D006E000EBE6E9494020EBA6E3C0EBD6E00F1
:10751D000EBC6EBA841200026E02C080FF828082A1
:10752D009283861A0E016EF80EE82EFED7012EFC00
:10753D00D700D083961200026E02C080FF82908227
:10754D009283861A0E016EF80EE82EFED7012EFCE0
:10755D00D700D083961200380EA2EC3AF00C0EA292
:10756D00EC3AF0010EA2EC3AF0060EA2EC3AF080E5
:10757D000EA2EC3AF0120001500302F3CF05F0F425
:10758D00CF06F001500402F350062602500302F319
:10759D0050062605C001F006C002F01200076E0766
:1075AD00C03FF0D00E0724016E026AFF0E022200CA
:1075BD000E046E0A0E036EC2EC3AF001C03DF002ED
:1075CD00C03EF01200FD0EF66E740EF76E000EF852
:1075DD006E00EE30F010EE09F00900F5CFEEFFE58C
:1075ED0050E150FAE100EE39F0070EEE6AE806FDC3
:1075FD00E1000102EF3BF0000E926E000E896E006D
:10760D000E806EF00E936E000E8A6E000E816E006F
:10761D000E946E000E8B6E000E826E000E956E0037
:10762D000E8C6E000E836E620ED36EF19EF00E8583
:10763D006EB2EC3AF083EC3AF06E0E3F6E6DEC3CB0
:10764D00F09E929EB2F9D7FDD728C001F029C00255
:10765D00F0000E02BEFF0E036E046E010ECDEC3B6C
:10766D00F001C00FF002C010F003C011F004C01201
:10767D00F0000E136E000E146EC80E156E420E162F
:10768D006E13EC3DF00FC02AF010C02BF011C02C82
:10769D00F012C02DF0000E056E000E066EF80E07EE
:1076AD006E420E086E2AC001F02BC002F02CC003F2
:1076BD00F02DC004F057EC3EF001C01AF002C01BD3
:1076CD00F003C01CF004C01DF070EC3BF01A50BE6E
:1076DD006E12001C341D34236E2350D8A409D00023
:1076ED000E1A6E000E1B6E000E1C6E000E1D6E121D
:1076FD00001AC01EF01BC01FF01CC020F01DC021C1
:10770D00F0200E05D0D890213220321F321E32E8E3
:10771D002EF9D71E50226E1C8EFF0E1A16FF0E1B51
:10772D0016FF0E1C16000E1D16960E235E23AE0DB3
:10773D00D02350800A970FD8A0D2D7D8901D321CD5
:10774D00321B321A32233EF9D70DD01F0E23640798
:10775D00D0C6D7D8901A361B361C361D36230623B5
:10776D0050D8A4F7D72250D8B408D01D1E1C1E1B0C
:10777D001E1A6C000E1B221C221D221AC01AF01B91
:10778D00C01BF01CC01CF01DC01DF01200096E09BD
:10779D0050D8A404AE1AD001C005F002C006F00303
:1077AD00C007F004C008F0051E061E071E081E05C2
:1077BD002A000E06220722082205C00BF006C00C77
:1077CD00F007C00DF008C00EF008D001C00BF0029C
:1077DD00C00CF003C00DF004C00EF00150021003F8
:1077ED00100410D8A409D0000E016E000E026E0018
:1077FD000E036E000E046E1200960E0A6E06D00A6F
:10780D002AD8900E320D320C320B32000E0B1405AD
:10781D006E000E0C14066E000E0D14076EFE0E0E8D
:10782D0014086E0550061007100810D8B40DD0E7D7
:10783D00D70A2A010E0B26000E0C220D220E22D87D
:10784D00900E320D320C320B32000E0B14056E0001
:10785D000E0C14066E000E0D14076EFF0E0E14089E
:10786D006E0550061007100810D8B407D0E1D70ADE
:10787D0006D8900B360C360D360E360DBE03D002E3
:10788D000E0A60F5D70AA00D9ED8900A320AC005DF
:10789D00F0066A076A086A05C008F0076A066A05F5
:1078AD006A05500B1206500C1207500D1208500E9F
:1078BD00120950D8A404AE01D00E8E0BC001F00CED
:1078CD00C002F00DC003F00EC004F01200A0D0F005
:1078DD000E8A6E81B81FD0818081A804D0310ED55B
:1078ED00EC3AF062D08190818281A804D0340ED51B
:1078FD00EC3AF05AD08192818481A804D0370ED50C
:10790D00EC3AF052D08194818681A84ED02A0ED5C2
:10791D00EC3AF04AD081BA20D08196818081AA04B8
:10792D00D0320ED5EC3AF040D08190818281AA04FC
:10793D00D0350ED5EC3AF038D08192818481AA04ED
:10794D00D0380ED5EC3AF030D08194818681AA2CB6
:10795D00D0300ED5EC3AF028D081BC26D08196815E
:10796D008081AC04D0330ED5EC3AF01ED0819081DD
:10797D008281AC04D0360ED5EC3AF016D0819281CE
:10798D008481AC04D0390ED5EC3AF00ED0819481BF
:10799D008681AC0AD03DC028F03EC029F02BEC3BCF
:1079AD00F0000E3E6E000E3D6E81AE1FD0819681B1
:1079BD008081BE04D0440ED5EC3AF017D081908171
:1079CD008281BE04D0410ED5EC3AF00FD081928168
:1079DD008481BE04D0420ED5EC3AF007D08194815B
:1079ED008681BE03D0430ED5EC3AF06E0E3F18D80B
:1079FD00B403D03F5092EC3AF0040E2F6E0C0E2EC5
:107A0D006E340EE82EFED72E2EFCD72F2EFAD76E03
:107A1D000E3F18D8A412005BD71250800B1F6E12A8
:107A2D00501224266E11BE26802650D8B40DD026B5
:107A3D0028D8A408D0000E0F6E000E106E000E1187
:107A4D006E000E126E118E06D0000E0F6E000E100F
:107A5D006E000E116E000E126E1650800B1F1A1650
:107A6D00501624276E15BE27802750D8B40DD02769
:107A7D0028D8A408D0000E136E000E146E000E153B
:107A8D006E000E166E158E06D0000E136E000E14BF
:107A9D006E000E156E000E166E1350141015101686
:107AAD0010D8A417D0000E0F6E000E106E000E1120
:107ABD006E000E126E800E11127F0E12121F5012DA
:107ACD00120FC00FF010C010F011C011F012C01243
:107ADD00F012002650D8A409D0000E0F6E000E1023
:107AED006E000E116E000E126E1200275026C0177A
:107AFD00F0186A175E000E185A7F0E1724206E00BC
:107B0D000E1820216E0FC01BF010C01CF011C01DEF
:107B1D00F012C01EF0000E0F6E000E106E000E1152
:107B2D006E000E126E000E226E000E236E000E24DD
:107B3D006E000E256E000E276E28D02750D8B4117A
:107B4D00D0D8901B361C361D361E36D8900F3610E9
:107B5D00361136123625BE0F80D8902236233624A4
:107B6D0036253613501B5C14501C5815501D5816D5
:107B7D00501E58D8A009D0258C13501B5E14501CD4
:107B8D005A15501D5A16501E5A272A190E2764D5FC
:107B9D00D71B501C101D101E10D8B411D022800FF1
:107BAD00D0D8900F3610361136123625BE0F80D82C
:107BBD009022362336243625362006D8A0210611EC
:107BCD00AEEFD7000E276E25AE17D0FF0E2214177D
:107BDD006EFF0E2314186EFF0E2414196E7F0E25E2
:107BED00141A6E1750181019101A10D8B403D001AA
:107BFD000E276E02D00FB0FBD72750D8B41FD0017F
:107C0D000E0F26000E10221122122212A017D00FD5
:107C1D00C017F010C018F011C019F012C01AF01AE8
:107C2D00341A3219321832173217C00FF018C0102B
:107C3D00F019C011F01AC012F0204A212A21BE10ED
:107C4D00D0215003E12028D8A00BD0000E216E20AA
:107C5D0068000E0F6E000E106E000E116E000E12EB
:107C6D006E21BE05D0215011E12004D8B00ED000F8
:107C7D000E216E000E206E000E0F6E000E106E00A7
:107C8D000E116E000E126E000E1F6E20C026F02615
:107C9D00A002D0118E01D0119ED8902630126E0EFA
:107CAD00D70450800B0D6E04500424136E03BE13C5
:107CBD00801350D8B40DD01328D8A408D0000E01CD
:107CCD006E000E026E000E036E000E046E038E0823
:107CDD00D0000E016E000E026E000E036E000E043B
:107CED006E0850800B0D1A08500824126E07BE1234
:107CFD00801250D8B40DD01228D8A408D0000E058B
:107D0D006E000E066E000E076E000E086E078E08D2
:107D1D00D0000E056E000E066E000E076E000E08EA
:107D2D006E1250D8B403D01350D8A409D0000E0150
:107D3D006E000E026E000E036E000E046E12000732
:107D4D00500102F3CF18F0F4CF19F018500E6E0F4A
:107D5D006A106A116A1950146E156A166A176A0646
:107D6D00500202F3CF18F0F4CF19F018500E260080
:107D7D000E0F221022112219501426000E15221654
:107D8D0022172205500302F3CF18F0F4CF19F01883
:107D9D00500E26000E0F221022112219501426000B
:107DAD000E15221622172210C011F00FC010F00E62
:107DBD00C00FF00E6A05500202F3CF18F0F4CF1980
:107DCD00F018500E2619500F22000E1022000E1121
:107DDD002206500102F3CF18F0F4CF19F018500E0F
:107DED002619500F22000E1022000E112210C01164
:107DFD00F00FC010F00EC00FF00E6A05500102F327
:107E0D00CF18F0F4CF19F018500E2619500F22008C
:107E1D000E1022000E112207500202F3CF18F0F4BB
:107E2D00CF19F01850142619501522000E162200E5
:107E3D000E172206500302F3CF18F0F4CF19F018E5
:107E4D0050142619501522000E1622000E17220767
:107E5D00500302F3CF18F0F4CF19F01850096E1932
:107E6D00500A6E0B6A0C6A0BC00CF00AC00BF009BD
:107E7D00C00AF0096A095014260A5015220B501633
:107E8D00220C5017220EC009F00FC00AF010C00BC3
:107E9D00F011C00CF0190E05D0D8900C320B320A2F
:107EAD00320932E82EF9D7095014260A5015220B43
:107EBD005016220C50172210C011F00FC010F00EEA
:107ECD00C00FF00E6A125013C009F00A6A0926009D
:107EDD000E0A22820E0924186EFF0E0A20196E0F4B
:107EED00D0D890143615361636173611BE1480D8E4
:107EFD00900E360F36103611361806D8A019061604
:107F0D00AEEFD7000E126E11AE17D0FF0E0E140984
:107F1D006EFF0E0F140A6EFF0E10140B6E7F0E11F6
:107F2D00140C6E09500A100B100C10D8B403D001AC
:107F3D000E126E02D014B0FBD71250D8B41FD00160
:107F4D000E1426000E15221622172217A017D01474
:107F5D00C009F015C00AF016C00BF017C00CF00CDC
:107F6D00340C320B320A32093209C014F00AC01532
:107F7D00F00BC016F00CC017F0184A192A19BE0DD7
:107F8D00D0195003E11828D8A008D0000E146E00A7
:107F9D000E156E800E166E7F0E20D019BE05D019EF
:107FAD00500EE11804D8B00BD0000E146E000E1553
:107FBD006E000E166E000E176E000E0D6E0FD018A1
:107FCD00C013F0FF0E1416FF0E15167F0E161600B9
:107FDD000E171613B0168ED8901330176E0D50174E
:107FED001214C001F015C002F016C003F017C00442
:037FFD00F012007F
:020000040020DA
:08000000FFFFFFFFFFFFFFFF00
:020000040030CA
:0E00000000285F3CFFD185FF0FC00FE00F40CE
:00000001FF
